:020000040000FA
:1000000068040020E1000000E9000000EB000000AF
:1000100000000000000000000000000000000000E0
:10002000000000000000000000000000ED000000E3
:100030000000000000000000EF000000F1000000E0
:10004000F3000000F3000000F3000000F3000000E4
:10005000F3000000F3000000F3000000F3000000D4
:10006000F3000000F3000000F3000000F3000000C4
:10007000F3000000F3000000F3000000F3000000B4
:10008000F3000000F3000000F3000000F3000000A4
:10009000F3000000F3000000F3000000F300000094
:1000A000F3000000F3000000F3000000F300000084
:1000B000F3000000F3000000F3000000F300000074
:1000C0000348854600F01AF8004800471104000074
:1000D0006804002080F3088880F30988084700003E
:1000E0000448804704480047FEE7FEE7FEE7FEE7D6
:1000F000FEE7FEE7C1020000C1000000064C01253A
:10010000064E05E0E36807CC2B430C3C98471034BF
:10011000B442F7D3FFF7D8FFDC030000FC03000074
:10012000FF2004300449C86004484069082188431E
:10013000024948617047000000B0044080F00F4061
:100140000448C06804490840044908430149C8609C
:1001500000BFFEE700ED00E0FFFFFA050400FA052E
:1001600000200649C87006484079887004488079A4
:1001700048700348C07908707047000004000020F0
:1001800014000020F8B504460027E578AA21281DB0
:1001900021545521681D2154A81DC6B206E0E05D1A
:1001A00000F0D2F8701EC6B2781CC7B2002EF6D18D
:1001B000F8BD30B5034609E01C785B1C0D78491C7E
:1001C000AC4201D1521E01E0012030BD002AF3D122
:1001D0000020FAE710B504460448046009200349EA
:1001E000C870042000F004F810BD000008000020D2
:1001F00010B503461849194A00BF1748001F007878
:10020000802420400028F8D07020134C241F207038
:1002100003E010780870521C491C18465C1EE3B2BB
:100220000028F6D10C48001F0078802420430A4C97
:10023000241F207000BF0848001F00788024204041
:100240000028F8D00448001F007831242040044CD6
:1002500020602046006810BD040002400800002015
:10026000000000200348C068012109040843014937
:10027000C8607047003000F030B504460D460548B0
:10028000046006200349C870084645600820FFF74F
:10029000AFFF30BD0800002070B505460C4616467D
:1002A00008E002CC2846FFF7E7FF002801D0012034
:1002B00070BD2D1D3046761E0028F2D100BFF7E735
:1002C0000548807808210840002804D0024880783A
:1002D000084301498870704700D0074008B50021E5
:1002E0000B48009004E055200A4A5060AA20506054
:1002F000094A127920231A40002A04D10098421E8C
:1003000000920028EFD10448C179084608BD0000DA
:10031000333303000081044000A0064010B5882458
:10032000200A08490870084644700C20C87001E093
:10033000FFF7D4FF03480079202108400028F7D1B7
:1003400010BD000000A0064000BF0449097940220A
:1003500011400029F9D00149C871704700A006403A
:1003600002E008C8121F08C1002AFAD1704770477E
:10037000002001E001C1121F002AFBD170470000DC
:10038000FFFFFFFFFFFFFFFFFEFFFFFFFEFBFFFF83
:100390004150505F4F4B00004D4B4C32365A342386
:1003A0000000312E3023000000000000010000009A
:1003B000014D4B4C32365A34000000312E300000D3
:1003C00000000000000000044000000000000200E7
:1003D00000100000FC030000FF030000680900009B
:1003E0000000002008000000600300007009000009
:1003F00008000020600400007003000000000000FE
:10040000FFFFFFFFFFFFFFFFFFFFFFFFFEFFFFFFFD
:10041000F0B597B0002016900026FD4800788021A6
:100420000840002802D00020FA49886372B6FA48D2
:100430004068012189060843F74948600846406B37
:10044000072189020843F44948630846806B00206D
:10045000C04388630846C06B01210843EE49C86366
:10046000FFF75EFEED484069FF2101310843EB498B
:100470004861EB48406920210843E9494861084642
:10048000006820210843E6490860012000038068D5
:10049000401C002811D00822E249E348FFF789FEFA
:1004A00001280AD0DE4840380069082108400028A9
:1004B00003D0D848806B0B280AD10126D8480068A1
:1004C00020218843D64908600020D24988630DE086
:1004D000D048806B0A2809D10226D1480068202123
:1004E0008843CF4908600020CA498863002E06D09F
:1004F000CE48CF494860801E8860FFF70FFFE4E1D7
:1005000000211591FF2114910021139101211291D5
:1005100000211191FFF7A6FEFFF7E0FEC549087024
:1005200008460078242803D1002016900120159059
:1005300010A8007D012839D1FFF7D0FEBD494870D1
:10054000FFF7CCFEFFF7CAFEBA49C8700846C1786B
:100550001391C078801DC1B214910421129108E05A
:10056000FFF7BCFE10A90C7A611CCAB21292B14905
:10057000085510A9087B411ECAB213920028EFD17A
:10058000FFF7ACFE014610A8047A601CC2B21292BA
:10059000A8480155FFF7A2FE014610A8047A601C86
:1005A000C2B21292A348015500211591A14840788A
:1005B00001280ED110A8007C801E9E49085CAA2844
:1005C00007D110A8007C401E085C552801D10120ED
:1005D000119010A8007901287ED100240027002561
:1005E000552095494860AA204860924800794928DA
:1005F0000AD004DC452870D047286FD13CE152284E
:100600006DD05728F9D1DAE0042401E0601CC4B2AF
:10061000201F8A49085C874908550028F6D1232203
:100620002046611CCCB283490A54274601E0601C75
:10063000C4B2E11B81480A30405C7E49085500285D
:10064000F5D123222046611CCCB27A490A547B485A
:10065000401E008BFF210902084002122046611C47
:10066000CCB274490A547548401E027E2046611C73
:10067000CCB270490A547148401EC08AFF21090259
:10068000084002122046611CCCB26A490A546B48E9
:10069000401E827D2046611CCCB266490A546748E0
:1006A000401E827F2046611CCCB262490A546348D6
:1006B000401E427F2046611CCCB25E490A545F480E
:1006C000401E027F2046611CCCB25A490A545B4846
:1006D00023308278204603E0ECE05DE0D5E0B1E035
:1006E000611CCCB253490A54544823304278204606
:1006F000611CCCB24F490A5450481F300279204641
:10070000611CCCB24B490A544C48273082782046B1
:10071000611CCCB247490A544848273042782046E9
:10072000611CCCB243490A5444481F30027A204627
:10073000611CCCB23F490A5440481F3082782046A1
:10074000611CCCB23B490A543C481F3042782046D9
:10075000611CCCB237490A5438481F300278204611
:10076000611CCCB233490A543448401E02782046FA
:10077000611CCCB22F490A54201FC8700846FFF7ED
:1007800001FD012E02D12848FFF724FD55202A49FA
:100790004860AA20486079E0FFF7E2FC2849086831
:1007A000FFF718FD002804D12249C8700846FFF75A
:1007B000E9FC552020494860AA20486066E0FFF720
:1007C000CFFC1C48057A0027092407E01948005D82
:1007D00001A9C855781CC7B2601CC4B2AF42F5DB92
:1007E000E917890F49198A1015490095086801A968
:1007F000FFF752FD002804D10E49C8700846FFF7E4
:10080000C1FC55200C494860AA2048603EE0000029
:1008100000F00740C02F00200080044000C00440CA
:10082000C0F00F4090030000F8FF0100020200003A
:10083000009004401400002000810440B103000037
:1008400004000020FFF78CFC3C48057A002407E0F8
:100850003B480068015D394A201D1154601CC4B238
:10086000AC42F5DB3548C570FFF78CFC55203549A7
:100870004860AA20486009E0012E04D102223249D2
:100880003248FFF709FDFFF75BFC00BF00BF002106
:100890001591129109E00022284910A8007A0A5403
:1008A00010A8007A401CC1B2129110A8007A5028FA
:1008B000F1DB00BF1698401C169016980A2803D347
:1008C000022E01D1FFF73CFC00BF002E00D017E63E
:1008D00000201F49C8701F484069891588431D4979
:1008E00048611D484069202188431B4948610846EA
:1008F0000068202188431849086018484068012191
:1009000089068843154948600846406B07218902DB
:100910008843124948630846806B002088630120A1
:1009200000030F49886000200E4988634A1403CAF7
:10093000FFF7D0FB002017B0F0BD0000140000202E
:10094000040000200081044090030000F8FF010033
:1009500000A0064000C00440C0F00F4000800440EA
:1009600000ED00E0C02F00200000000000000000AB
:04000005000000C136
:00000001FF
