S01900006B32325F6C65645F677265656E5F6170702E7372656398
S113400000000120D94400000545000005450000DA
S113401005450000054500000545000000000000BE
S11340200000000000000000000000000545000042
S1134030054500000000000005450000054500009E
S11340400545000005450000054500000545000044
S11340500545000005450000054500000545000034
S11340600545000005450000054500000545000024
S11340700545000005450000054500000545000014
S11340800545000005450000054500000545000004
S113409005450000054500000545000005450000F4
S11340A005450000054500000545000005450000E4
S11340B005450000054500000545000005450000D4
S11340C005450000E14700000545000005450000E6
S11340D005450000054500000545000005450000B4
S11340E005450000054500000545000005450000A4
S11340F00545000005450000054500000545000094
S113410091470000054500000545000005450000F5
S11341100545000005450000054500000545000073
S11341200545000005450000054500000545000063
S11341300545000005450000054500000545000053
S11341400545000005450000054500000545000043
S11343F0054500000545000005450000FFFFFFFFDF
S1134400FFFFFFFFFFFFFFFFFFFFFFFFFEFFFFFFB9
S113441010B5054C237833B9044B13B10448AFF3FA
S113442000800123237010BD6400FF1F0000000002
S1134430E848000008B5064B1BB106480649AFF32F
S113444000800648036813B1054B03B1984708BDC3
S113445000000000E84800006800FF1F6000FF1F24
S113446000000000154B002B08BF134B9D46A3F51D
S1134470803A00218B460F461348144A121A00F062
S113448025FA0F4B002B00D098470E4B002B00D081
S113449098470020002104000D000D48002802D098
S11344A00C48AFF3008000F0EBF92000290000F085
S11344B0CDF800F0D1F900BF000008000000012091
S11344C000000000000000006400FF1F8C00FF1FBC
S11344D0000000000000000072B600F09FF962B610
S11344E00549064A064B9A42BEBF51F8040B42F8EE
S11344F0040BF8E7FFF7B6FF104900000000FF1FA8
S11345006400FF1FFFF7FEBF80B400AFBFF34F8FFF
S1134510054A054BDB6803F4E061044B0B43D360AD
S1134520BFF34F8F00BFFDE700ED00E00400FA0584
S113453080B400AF124B4FF440725A60104B4FF4EA
S113454040721A600F4B00221A700E4B88225A7068
S11345500C4B0C22DA700B4B0A4AD278D2B242F0DE
S11345602002D2B2DA70074B064AD27AD2B202F0F3
S11345707F02D2B2DA72BD465DF8047B704700BF99
S113458000D0044000B0064080B582B000AF0023E4
S1134590FB711F4B1B78242B05D11D4BDB78063395
S11345A0DAB21C4B1A701A4B5A7801239A420FD173
S11345B0184B1B78023B164AD35CAA2B08D1154B27
S11345C01B78013B124AD35C552B01D10123FB71AB
S11345D0FB79012B18D10E4B1B79422B03D00C4BCA
S11345E01B79562B10D172B6094B1B79422B02D181
S11345F0094B0B221A60064B1B79562B02D1064B32
S11346000A221A60FFF780FF0837BD4680BD00BF4D
S11346108000FF1F8800FF1FF8FF002080B483B0D4
S113462000AF0346FB71084B97F907205209F9794B
S113463001F01F01012000FA01F143F822100C37A8
S1134640BD465DF8047B704700E100E080B500AF33
S113465062B63349324B03F5815318331B6843F474
S1134660085201F5815318331A6000F0A5F82C495B
S11346702B4B03F5815314331B6843F4006201F59B
S1134680815314331A60264B03F5815318331B6886
S1134690234B03F5815318334FF0FF321A6020493E
S11346A01F4B03F581531C331B6843F0010201F5D2
S11346B081531C331A60FFF73BFF2120FFF7AEFF45
S11346C0184B4FF480725A60164B4FF480729A6004
S11346D0154B154A526942F002025A61124B124AB2
S11346E0526942F004025A610F4B0F4A126842F0B9
S11346F002021A600C4B0C4A926842F004029A605F
S113470000F016F83020FFF789FF084B1B78072BC1
S113471005D1064B00221A70FFF736FFF5E7F4E7E0
S1134720007004400090044000F00F408900FF1F17
S113473080B400AF1349134B03F581531C331B683A
S113474043F4000201F581531C331A600E4B00221E
S11347501A600D4B0D4AC3F800210B4B0A4AD2F8DC
S1134760082142F00202C3F80821074B064AD2F896
S1134770082142F00102C3F80821BD465DF8047B1C
S1134780704700BF0070044000700340FFFF3F000B
S113479080B400AF064B0422DA60064B0122C3F852
S11347A00C21044BD3F80831BD465DF8047B7047F7
S11347B000F00F400070034080B400AF074B0022AC
S11347C0DA74064B00229A74044B00225A74034B89
S11347D000221A74BD465DF8047B70470000024055
S11347E080B483B000AF0A4B1B79FB71094B1B7873
S11347F05A1CD1B2074A1170054AD279D1B2064A7D
S1134800D15400BF0C37BD465DF8047B704700BF30
S113481000B006408900FF1F8000FF1F80B400AF76
S11348200B4B0B4AD2F8882042F47002C3F888205C
S1134830084B4CF22052DA81064B4DF62812DA81ED
S1134840044B4FF4E9721A80BD465DF8047B70474F
S113485000ED00E00020054008B5074B044613B105
S11348600021AFF30080054B1868836A03B19847B1
S1134870204600F033F800BF00000000E4480000C8
S113488070B50E4B0E4DED1AAD1000241E46AC4211
S113489004D056F8242090470134F8E700F024F8B7
S11348A0084D094BED1AAD1000241E46AC4204D04D
S11348B056F8242090470134F8E770BD08490000F9
S11348C0084900000C49000008490000024403465E
S11348D0934202D003F8011BFAE77047FEE700BFDA
S11348E0430000000000FF1FF8B500BFF8BC08BC7F
S11348F09E467047F8B500BFF8BC08BC9E4670479A
S10B490064FBFF7F01000000CD
S1074908354400002E
S107490C114400004E
S11349100000000000000000000000000000000093
S11349200000000000000000000000000000000083
S1134930E04800000000000000000000000000004B
S11349400000000000000000000000000000000063
S11349500000000000000000000000000000000053
S11349600000000000000000000000000000000043
S1074970000000003F
S90344D9DF
